:060000000A128A118D2F87
:100F1A0083010A128A11912F7130831603138F00ED
:100F2A00880186018316031789019B2F813083125A
:100F3A00031388000630F2001330F100B130F000DC
:100F4A00F00BA52FF10BA52FF20BA52FAC2F8312B7
:100F5A00031388090630F2001330F100B130F000B3
:100F6A00F00BB52FF10BB52FF20BB52FBC2FF301F8
:100F7A00F4017408803AFF0080307F02031DC72FF6
:100F8A0008307302031CCA2FCB2FCD2F9B2F9B2F08
:100F9A000130F000730AD32F0310F00DFF3E031D3A
:100FAA00D12F70088312031388000630F200133021
:100FBA00F100B130F000F00BE02FF10BE02FF20B53
:100FCA00E02FE72F0130F3070318F40A0030F40783
:100FDA007408803AFF0080307F02031DF62F083024
:100FEA007302031CF92FFA2FCD2F9B2F9B2F9B2FB8
:060FFA000A128A11002812
:04400E00D5E0FFFFFB
:00000001FF
