:060000000A128A11BF2F55
:100EEE003F3406345B34F43466346D347D34073469
:100EFE007F346F347E088A007F0882000A128A11BE
:100F0E0081270A128A118000840A04087D060319BB
:100F1E000034FF0A0319FE0A852F8B138316031361
:100F2E0081160116831203138101831603138801A0
:100F3E0083120313880183160313051683160317F2
:100F4E0088010A30831203130106031DAF2FB02F41
:100F5E00B22F8101FA010108FB007B08FA007A0822
:100F6E00703E840000088800A82F0A128A110028FB
:100F7E000A128A1177270A128A11F0000A128A11B0
:100F8E0078270A128A11F1000A128A1179270A1299
:100F9E008A11F2000A128A117A270A128A11F300B4
:100FAE000A128A117B270A128A11F4000A128A1178
:100FBE007C270A128A11F5000A128A117D270A125D
:100FCE008A11F6000A128A117E270A128A11F70078
:100FDE000A128A117F270A128A11F8000A128A1140
:100FEE0080270A128A11F900FA0183010A128A1166
:020FFE00942F2E
:08400000FF3FFF3FFF3FFF3FC0
:04400E00FF3FFF3F32
:00000001FF
