:060000000A128A11C12F53
:100F820083010A128A11C52F8316031388010514DF
:100F92000130831603178800831603139F131F1251
:100FA2009F12C330831203139F051F083F39403835
:100FB2009F00DB2F831203131F141330F000F00B7A
:100FC200E02FE32F831203139F14E72F9F18EA2FBA
:100FD200EB2FE72F1F101E0888000630F200133097
:100FE200F100B130F000F00BF42FF10BF42FF20B03
:0E0FF200F42FFB2FDB2FDB2F0A128A110028B1
:04400E00D5E0FFFFFB
:00000001FF
