:060000000A128A110C280F
:10000800FE00030EF1000A08F2000A128A11E02825
:100018000A128A110F2883132A30FD000130FE00CE
:100028001E30FF00203084000A128A110F210A12A4
:100038008A11F801F90183010A128A11232883160B
:10004800031306108312031386018316031789010D
:100058008B138316031381128111073081043C30FE
:100068008312031381008316031388018312031379
:1000780088018316031305168316031788010B11CD
:100088008B160B178B170A30F3000030F400790831
:1000980083120313AC00AD012C08F5002D08F600FF
:1000A8000A128A1185200A128A117308203E8400D8
:1000B8008313000883120313880034308312031358
:1000C800AD00F130AC00AC0B6728AD0B672883128C
:1000D8000313051A702871284728823083120313E6
:1000E800AD00DD30AC00AC0B7728AD0B7728F901FB
:1000F8003C308312031381000B1147280A128A111E
:100108000C2883120313AB01F61F8B288C28932825
:10011800F509F609F50A0319F60AAB01AB0AF41F4B
:10012800962897289C28F309F409F30A0319F40A76
:10013800730874040319A128A228D128AA01AA0ABD
:10014800B02801300310F30DF40DFF3E031DA6285F
:100158000130F7007708AA07F41FB328B428A528A8
:1001680074087602031DBA2873087502031CBD289B
:10017800BE28C4287308F5027408031CF603F602A7
:1001880001300310F40CF30CFF3E031DC5280130A9
:10019800AA02031DD028D128B4282B080319D52872
:1001A800D628DB28F509F609F50A0319F60A7608B0
:1001B800F4007508F30008008B1EE328E4280429DE
:1001C8000B1DE728E8280429831203138609013048
:1001D800F0007008F80714307806031DF428F52895
:1001E80001290130F0007008F90764307906031D11
:1001F800FE28FF280029F901F8013C3081000B1185
:1002080072088A00710E8300FE0E7E0E09007E08B9
:100218008A007F0882000A128A110B210A128A11A9
:100228008000840A04087D0603190034FF0A0319B4
:10023800FE0A0F293F3406345B344F3466346D347C
:080248007D3407347F346F346C
:08400000FF3FFF3FFF3FFF3FC0
:04400E00D520FF3F7B
:00000001FF
